{"contracts/MedicalRecords.sol":{"MedicalRecords":{"abi":[{"anonymous":false,"inputs":[{"indexed":false,"internalType":"string","name":"noSEP","type":"string"},{"indexed":false,"internalType":"string","name":"userNIK","type":"string"},{"indexed":false,"internalType":"uint256","name":"timestamp","type":"uint256"}],"name":"RecordAdded","type":"event"},{"anonymous":false,"inputs":[{"indexed":false,"internalType":"string","name":"nik","type":"string"},{"indexed":false,"internalType":"uint256","name":"timestamp","type":"uint256"}],"name":"UserRegistered","type":"event"},{"inputs":[{"internalType":"string","name":"noSEP","type":"string"},{"internalType":"string","name":"userNIK","type":"string"},{"internalType":"bytes32","name":"dataHash","type":"bytes32"}],"name":"addRecord","outputs":[],"stateMutability":"nonpayable","type":"function"},{"inputs":[{"internalType":"string","name":"nik","type":"string"},{"internalType":"bytes32","name":"userHash","type":"bytes32"}],"name":"addUser","outputs":[],"stateMutability":"nonpayable","type":"function"},{"inputs":[{"internalType":"string","name":"nik","type":"string"}],"name":"isUserRegistered","outputs":[{"internalType":"bool","name":"","type":"bool"}],"stateMutability":"view","type":"function"},{"inputs":[{"internalType":"string","name":"noSEP","type":"string"},{"internalType":"bytes32","name":"dataHash","type":"bytes32"}],"name":"verifyRecord","outputs":[{"internalType":"bool","name":"","type":"bool"}],"stateMutability":"view","type":"function"},{"inputs":[{"internalType":"string","name":"nik","type":"string"},{"internalType":"bytes32","name":"userHash","type":"bytes32"}],"name":"verifyUser","outputs":[{"internalType":"bool","name":"","type":"bool"}],"stateMutability":"view","type":"function"}],"evm":{"bytecode":{"linkReferences":{},"object":"608060405234801561001057600080fd5b50610e93806100206000396000f3fe608060405234801561001057600080fd5b50600436106100575760003560e01c8063026d4e5c1461005c578063122a183a1461007857806353d0e5bc146100a8578063a8cc7784146100d8578063b2004ace14610108575b600080fd5b61007660048036038101906100719190610709565b610124565b005b610092600480360381019061008d9190610794565b6102ec565b60405161009f919061080b565b60405180910390f35b6100c260048036038101906100bd9190610794565b610388565b6040516100cf919061080b565b60405180910390f35b6100f260048036038101906100ed9190610826565b610423565b6040516100ff919061080b565b60405180910390f35b610122600480360381019061011d9190610794565b61045a565b005b60018360405161013491906108e0565b908152602001604051809103902060040160009054906101000a900460ff1615610193576040517f08c379a000000000000000000000000000000000000000000000000000000000815260040161018a90610954565b60405180910390fd5b6000826040516101a391906108e0565b908152602001604051809103902060020160009054906101000a900460ff16610201576040517f08c379a00000000000000000000000000000000000000000000000000000000081526004016101f8906109c0565b60405180910390fd5b6040518060a001604052808481526020018381526020018281526020014281526020016001151581525060018460405161023b91906108e0565b9081526020016040518091039020600082015181600001908161025e9190610bf6565b5060208201518160010190816102749190610bf6565b50604082015181600201556060820151816003015560808201518160040160006101000a81548160ff0219169083151502179055509050507f2fda3ce68e3316f21c26863e3b64c0bca4dfc4d6cb5777ef08d41c56482e22218383426040516102df93929190610d10565b60405180910390a1505050565b60006001836040516102fe91906108e0565b908152602001604051809103902060040160009054906101000a900460ff1661035c576040517f08c379a000000000000000000000000000000000000000000000000000000000815260040161035390610da1565b60405180910390fd5b8160018460405161036d91906108e0565b90815260200160405180910390206002015414905092915050565b6000808360405161039991906108e0565b908152602001604051809103902060020160009054906101000a900460ff166103f7576040517f08c379a00000000000000000000000000000000000000000000000000000000081526004016103ee906109c0565b60405180910390fd5b8160008460405161040891906108e0565b90815260200160405180910390206000015414905092915050565b6000808260405161043491906108e0565b908152602001604051809103902060020160009054906101000a900460ff169050919050565b60008260405161046a91906108e0565b908152602001604051809103902060020160009054906101000a900460ff16156104c9576040517f08c379a00000000000000000000000000000000000000000000000000000000081526004016104c090610e0d565b60405180910390fd5b6040518060600160405280828152602001428152602001600115158152506000836040516104f791906108e0565b9081526020016040518091039020600082015181600001556020820151816001015560408201518160020160006101000a81548160ff0219169083151502179055509050507fb48edca3bdc8658bb712b2fceff22de028026d6f971f9bf32aab68125fc49bc6824260405161056d929190610e2d565b60405180910390a15050565b6000604051905090565b600080fd5b600080fd5b600080fd5b600080fd5b6000601f19601f8301169050919050565b7f4e487b7100000000000000000000000000000000000000000000000000000000600052604160045260246000fd5b6105e082610597565b810181811067ffffffffffffffff821117156105ff576105fe6105a8565b5b80604052505050565b6000610612610579565b905061061e82826105d7565b919050565b600067ffffffffffffffff82111561063e5761063d6105a8565b5b61064782610597565b9050602081019050919050565b82818337600083830152505050565b600061067661067184610623565b610608565b90508281526020810184848401111561069257610691610592565b5b61069d848285610654565b509392505050565b600082601f8301126106ba576106b961058d565b5b81356106ca848260208601610663565b91505092915050565b6000819050919050565b6106e6816106d3565b81146106f157600080fd5b50565b600081359050610703816106dd565b92915050565b60008060006060848603121561072257610721610583565b5b600084013567ffffffffffffffff8111156107405761073f610588565b5b61074c868287016106a5565b935050602084013567ffffffffffffffff81111561076d5761076c610588565b5b610779868287016106a5565b925050604061078a868287016106f4565b9150509250925092565b600080604083850312156107ab576107aa610583565b5b600083013567ffffffffffffffff8111156107c9576107c8610588565b5b6107d5858286016106a5565b92505060206107e6858286016106f4565b9150509250929050565b60008115159050919050565b610805816107f0565b82525050565b600060208201905061082060008301846107fc565b92915050565b60006020828403121561083c5761083b610583565b5b600082013567ffffffffffffffff81111561085a57610859610588565b5b610866848285016106a5565b91505092915050565b600081519050919050565b600081905092915050565b60005b838110156108a3578082015181840152602081019050610888565b60008484015250505050565b60006108ba8261086f565b6108c4818561087a565b93506108d4818560208601610885565b80840191505092915050565b60006108ec82846108af565b915081905092915050565b600082825260208201905092915050565b7f5265636f726420616c7265616479206578697374730000000000000000000000600082015250565b600061093e6015836108f7565b915061094982610908565b602082019050919050565b6000602082019050818103600083015261096d81610931565b9050919050565b7f55736572206e6f74207265676973746572656400000000000000000000000000600082015250565b60006109aa6013836108f7565b91506109b582610974565b602082019050919050565b600060208201905081810360008301526109d98161099d565b9050919050565b7f4e487b7100000000000000000000000000000000000000000000000000000000600052602260045260246000fd5b60006002820490506001821680610a2757607f821691505b602082108103610a3a57610a396109e0565b5b50919050565b60008190508160005260206000209050919050565b60006020601f8301049050919050565b600082821b905092915050565b600060088302610aa27fffffffffffffffffffffffffffffffffffffffffffffffffffffffffffffffff82610a65565b610aac8683610a65565b95508019841693508086168417925050509392505050565b6000819050919050565b6000819050919050565b6000610af3610aee610ae984610ac4565b610ace565b610ac4565b9050919050565b6000819050919050565b610b0d83610ad8565b610b21610b1982610afa565b848454610a72565b825550505050565b600090565b610b36610b29565b610b41818484610b04565b505050565b5b81811015610b6557610b5a600082610b2e565b600181019050610b47565b5050565b601f821115610baa57610b7b81610a40565b610b8484610a55565b81016020851015610b93578190505b610ba7610b9f85610a55565b830182610b46565b50505b505050565b600082821c905092915050565b6000610bcd60001984600802610baf565b1980831691505092915050565b6000610be68383610bbc565b9150826002028217905092915050565b610bff8261086f565b67ffffffffffffffff811115610c1857610c176105a8565b5b610c228254610a0f565b610c2d828285610b69565b600060209050601f831160018114610c605760008415610c4e578287015190505b610c588582610bda565b865550610cc0565b601f198416610c6e86610a40565b60005b82811015610c9657848901518255600182019150602085019450602081019050610c71565b86831015610cb35784890151610caf601f891682610bbc565b8355505b6001600288020188555050505b505050505050565b6000610cd38261086f565b610cdd81856108f7565b9350610ced818560208601610885565b610cf681610597565b840191505092915050565b610d0a81610ac4565b82525050565b60006060820190508181036000830152610d2a8186610cc8565b90508181036020830152610d3e8185610cc8565b9050610d4d6040830184610d01565b949350505050565b7f5265636f726420646f6573206e6f742065786973740000000000000000000000600082015250565b6000610d8b6015836108f7565b9150610d9682610d55565b602082019050919050565b60006020820190508181036000830152610dba81610d7e565b9050919050565b7f5573657220616c72656164792072656769737465726564000000000000000000600082015250565b6000610df76017836108f7565b9150610e0282610dc1565b602082019050919050565b60006020820190508181036000830152610e2681610dea565b9050919050565b60006040820190508181036000830152610e478185610cc8565b9050610e566020830184610d01565b939250505056fea2646970667358221220ec9e315f4ff53870032b58cffca1ae84ae630a779d4412252da28f330b055a2764736f6c63430008130033","opcodes":"PUSH1 0x80 PUSH1 0x40 MSTORE CALLVALUE DUP1 ISZERO PUSH2 0x10 JUMPI PUSH1 0x0 DUP1 REVERT JUMPDEST POP PUSH2 0xE93 DUP1 PUSH2 0x20 PUSH1 0x0 CODECOPY PUSH1 0x0 RETURN INVALID PUSH1 0x80 PUSH1 0x40 MSTORE CALLVALUE DUP1 ISZERO PUSH2 0x10 JUMPI PUSH1 0x0 DUP1 REVERT JUMPDEST POP PUSH1 0x4 CALLDATASIZE LT PUSH2 0x57 JUMPI PUSH1 0x0 CALLDATALOAD PUSH1 0xE0 SHR DUP1 PUSH4 0x26D4E5C EQ PUSH2 0x5C JUMPI DUP1 PUSH4 0x122A183A EQ PUSH2 0x78 JUMPI DUP1 PUSH4 0x53D0E5BC EQ PUSH2 0xA8 JUMPI DUP1 PUSH4 0xA8CC7784 EQ PUSH2 0xD8 JUMPI DUP1 PUSH4 0xB2004ACE EQ PUSH2 0x108 JUMPI JUMPDEST PUSH1 0x0 DUP1 REVERT JUMPDEST PUSH2 0x76 PUSH1 0x4 DUP1 CALLDATASIZE SUB DUP2 ADD SWAP1 PUSH2 0x71 SWAP2 SWAP1 PUSH2 0x709 JUMP JUMPDEST PUSH2 0x124 JUMP JUMPDEST STOP JUMPDEST PUSH2 0x92 PUSH1 0x4 DUP1 CALLDATASIZE SUB DUP2 ADD SWAP1 PUSH2 0x8D SWAP2 SWAP1 PUSH2 0x794 JUMP JUMPDEST PUSH2 0x2EC JUMP JUMPDEST PUSH1 0x40 MLOAD PUSH2 0x9F SWAP2 SWAP1 PUSH2 0x80B JUMP JUMPDEST PUSH1 0x40 MLOAD DUP1 SWAP2 SUB SWAP1 RETURN JUMPDEST PUSH2 0xC2 PUSH1 0x4 DUP1 CALLDATASIZE SUB DUP2 ADD SWAP1 PUSH2 0xBD SWAP2 SWAP1 PUSH2 0x794 JUMP JUMPDEST PUSH2 0x388 JUMP JUMPDEST PUSH1 0x40 MLOAD PUSH2 0xCF SWAP2 SWAP1 PUSH2 0x80B JUMP JUMPDEST PUSH1 0x40 MLOAD DUP1 SWAP2 SUB SWAP1 RETURN JUMPDEST PUSH2 0xF2 PUSH1 0x4 DUP1 CALLDATASIZE SUB DUP2 ADD SWAP1 PUSH2 0xED SWAP2 SWAP1 PUSH2 0x826 JUMP JUMPDEST PUSH2 0x423 JUMP JUMPDEST PUSH1 0x40 MLOAD PUSH2 0xFF SWAP2 SWAP1 PUSH2 0x80B JUMP JUMPDEST PUSH1 0x40 MLOAD DUP1 SWAP2 SUB SWAP1 RETURN JUMPDEST PUSH2 0x122 PUSH1 0x4 DUP1 CALLDATASIZE SUB DUP2 ADD SWAP1 PUSH2 0x11D SWAP2 SWAP1 PUSH2 0x794 JUMP JUMPDEST PUSH2 0x45A JUMP JUMPDEST STOP JUMPDEST PUSH1 0x1 DUP4 PUSH1 0x40 MLOAD PUSH2 0x134 SWAP2 SWAP1 PUSH2 0x8E0 JUMP JUMPDEST SWAP1 DUP2 MSTORE PUSH1 0x20 ADD PUSH1 0x40 MLOAD DUP1 SWAP2 SUB SWAP1 KECCAK256 PUSH1 0x4 ADD PUSH1 0x0 SWAP1 SLOAD SWAP1 PUSH2 0x100 EXP SWAP1 DIV PUSH1 0xFF AND ISZERO PUSH2 0x193 JUMPI PUSH1 0x40 MLOAD PUSH32 0x8C379A000000000000000000000000000000000000000000000000000000000 DUP2 MSTORE PUSH1 0x4 ADD PUSH2 0x18A SWAP1 PUSH2 0x954 JUMP JUMPDEST PUSH1 0x40 MLOAD DUP1 SWAP2 SUB SWAP1 REVERT JUMPDEST PUSH1 0x0 DUP3 PUSH1 0x40 MLOAD PUSH2 0x1A3 SWAP2 SWAP1 PUSH2 0x8E0 JUMP JUMPDEST SWAP1 DUP2 MSTORE PUSH1 0x20 ADD PUSH1 0x40 MLOAD DUP1 SWAP2 SUB SWAP1 KECCAK256 PUSH1 0x2 ADD PUSH1 0x0 SWAP1 SLOAD SWAP1 PUSH2 0x100 EXP SWAP1 DIV PUSH1 0xFF AND PUSH2 0x201 JUMPI PUSH1 0x40 MLOAD PUSH32 0x8C379A000000000000000000000000000000000000000000000000000000000 DUP2 MSTORE PUSH1 0x4 ADD PUSH2 0x1F8 SWAP1 PUSH2 0x9C0 JUMP JUMPDEST PUSH1 0x40 MLOAD DUP1 SWAP2 SUB SWAP1 REVERT JUMPDEST PUSH1 0x40 MLOAD DUP1 PUSH1 0xA0 ADD PUSH1 0x40 MSTORE DUP1 DUP5 DUP2 MSTORE PUSH1 0x20 ADD DUP4 DUP2 MSTORE PUSH1 0x20 ADD DUP3 DUP2 MSTORE PUSH1 0x20 ADD TIMESTAMP DUP2 MSTORE PUSH1 0x20 ADD PUSH1 0x1 ISZERO ISZERO DUP2 MSTORE POP PUSH1 0x1 DUP5 PUSH1 0x40 MLOAD PUSH2 0x23B SWAP2 SWAP1 PUSH2 0x8E0 JUMP JUMPDEST SWAP1 DUP2 MSTORE PUSH1 0x20 ADD PUSH1 0x40 MLOAD DUP1 SWAP2 SUB SWAP1 KECCAK256 PUSH1 0x0 DUP3 ADD MLOAD DUP2 PUSH1 0x0 ADD SWAP1 DUP2 PUSH2 0x25E SWAP2 SWAP1 PUSH2 0xBF6 JUMP JUMPDEST POP PUSH1 0x20 DUP3 ADD MLOAD DUP2 PUSH1 0x1 ADD SWAP1 DUP2 PUSH2 0x274 SWAP2 SWAP1 PUSH2 0xBF6 JUMP JUMPDEST POP PUSH1 0x40 DUP3 ADD MLOAD DUP2 PUSH1 0x2 ADD SSTORE PUSH1 0x60 DUP3 ADD MLOAD DUP2 PUSH1 0x3 ADD SSTORE PUSH1 0x80 DUP3 ADD MLOAD DUP2 PUSH1 0x4 ADD PUSH1 0x0 PUSH2 0x100 EXP DUP2 SLOAD DUP2 PUSH1 0xFF MUL NOT AND SWAP1 DUP4 ISZERO ISZERO MUL OR SWAP1 SSTORE POP SWAP1 POP POP PUSH32 0x2FDA3CE68E3316F21C26863E3B64C0BCA4DFC4D6CB5777EF08D41C56482E2221 DUP4 DUP4 TIMESTAMP PUSH1 0x40 MLOAD PUSH2 0x2DF SWAP4 SWAP3 SWAP2 SWAP1 PUSH2 0xD10 JUMP JUMPDEST PUSH1 0x40 MLOAD DUP1 SWAP2 SUB SWAP1 LOG1 POP POP POP JUMP JUMPDEST PUSH1 0x0 PUSH1 0x1 DUP4 PUSH1 0x40 MLOAD PUSH2 0x2FE SWAP2 SWAP1 PUSH2 0x8E0 JUMP JUMPDEST SWAP1 DUP2 MSTORE PUSH1 0x20 ADD PUSH1 0x40 MLOAD DUP1 SWAP2 SUB SWAP1 KECCAK256 PUSH1 0x4 ADD PUSH1 0x0 SWAP1 SLOAD SWAP1 PUSH2 0x100 EXP SWAP1 DIV PUSH1 0xFF AND PUSH2 0x35C JUMPI PUSH1 0x40 MLOAD PUSH32 0x8C379A000000000000000000000000000000000000000000000000000000000 DUP2 MSTORE PUSH1 0x4 ADD PUSH2 0x353 SWAP1 PUSH2 0xDA1 JUMP JUMPDEST PUSH1 0x40 MLOAD DUP1 SWAP2 SUB SWAP1 REVERT JUMPDEST DUP2 PUSH1 0x1 DUP5 PUSH1 0x40 MLOAD PUSH2 0x36D SWAP2 SWAP1 PUSH2 0x8E0 JUMP JUMPDEST SWAP1 DUP2 MSTORE PUSH1 0x20 ADD PUSH1 0x40 MLOAD DUP1 SWAP2 SUB SWAP1 KECCAK256 PUSH1 0x2 ADD SLOAD EQ SWAP1 POP SWAP3 SWAP2 POP POP JUMP JUMPDEST PUSH1 0x0 DUP1 DUP4 PUSH1 0x40 MLOAD PUSH2 0x399 SWAP2 SWAP1 PUSH2 0x8E0 JUMP JUMPDEST SWAP1 DUP2 MSTORE PUSH1 0x20 ADD PUSH1 0x40 MLOAD DUP1 SWAP2 SUB SWAP1 KECCAK256 PUSH1 0x2 ADD PUSH1 0x0 SWAP1 SLOAD SWAP1 PUSH2 0x100 EXP SWAP1 DIV PUSH1 0xFF AND PUSH2 0x3F7 JUMPI PUSH1 0x40 MLOAD PUSH32 0x8C379A000000000000000000000000000000000000000000000000000000000 DUP2 MSTORE PUSH1 0x4 ADD PUSH2 0x3EE SWAP1 PUSH2 0x9C0 JUMP JUMPDEST PUSH1 0x40 MLOAD DUP1 SWAP2 SUB SWAP1 REVERT JUMPDEST DUP2 PUSH1 0x0 DUP5 PUSH1 0x40 MLOAD PUSH2 0x408 SWAP2 SWAP1 PUSH2 0x8E0 JUMP JUMPDEST SWAP1 DUP2 MSTORE PUSH1 0x20 ADD PUSH1 0x40 MLOAD DUP1 SWAP2 SUB SWAP1 KECCAK256 PUSH1 0x0 ADD SLOAD EQ SWAP1 POP SWAP3 SWAP2 POP POP JUMP JUMPDEST PUSH1 0x0 DUP1 DUP3 PUSH1 0x40 MLOAD PUSH2 0x434 SWAP2 SWAP1 PUSH2 0x8E0 JUMP JUMPDEST SWAP1 DUP2 MSTORE PUSH1 0x20 ADD PUSH1 0x40 MLOAD DUP1 SWAP2 SUB SWAP1 KECCAK256 PUSH1 0x2 ADD PUSH1 0x0 SWAP1 SLOAD SWAP1 PUSH2 0x100 EXP SWAP1 DIV PUSH1 0xFF AND SWAP1 POP SWAP2 SWAP1 POP JUMP JUMPDEST PUSH1 0x0 DUP3 PUSH1 0x40 MLOAD PUSH2 0x46A SWAP2 SWAP1 PUSH2 0x8E0 JUMP JUMPDEST SWAP1 DUP2 MSTORE PUSH1 0x20 ADD PUSH1 0x40 MLOAD DUP1 SWAP2 SUB SWAP1 KECCAK256 PUSH1 0x2 ADD PUSH1 0x0 SWAP1 SLOAD SWAP1 PUSH2 0x100 EXP SWAP1 DIV PUSH1 0xFF AND ISZERO PUSH2 0x4C9 JUMPI PUSH1 0x40 MLOAD PUSH32 0x8C379A000000000000000000000000000000000000000000000000000000000 DUP2 MSTORE PUSH1 0x4 ADD PUSH2 0x4C0 SWAP1 PUSH2 0xE0D JUMP JUMPDEST PUSH1 0x40 MLOAD DUP1 SWAP2 SUB SWAP1 REVERT JUMPDEST PUSH1 0x40 MLOAD DUP1 PUSH1 0x60 ADD PUSH1 0x40 MSTORE DUP1 DUP3 DUP2 MSTORE PUSH1 0x20 ADD TIMESTAMP DUP2 MSTORE PUSH1 0x20 ADD PUSH1 0x1 ISZERO ISZERO DUP2 MSTORE POP PUSH1 0x0 DUP4 PUSH1 0x40 MLOAD PUSH2 0x4F7 SWAP2 SWAP1 PUSH2 0x8E0 JUMP JUMPDEST SWAP1 DUP2 MSTORE PUSH1 0x20 ADD PUSH1 0x40 MLOAD DUP1 SWAP2 SUB SWAP1 KECCAK256 PUSH1 0x0 DUP3 ADD MLOAD DUP2 PUSH1 0x0 ADD SSTORE PUSH1 0x20 DUP3 ADD MLOAD DUP2 PUSH1 0x1 ADD SSTORE PUSH1 0x40 DUP3 ADD MLOAD DUP2 PUSH1 0x2 ADD PUSH1 0x0 PUSH2 0x100 EXP DUP2 SLOAD DUP2 PUSH1 0xFF MUL NOT AND SWAP1 DUP4 ISZERO ISZERO MUL OR SWAP1 SSTORE POP SWAP1 POP POP PUSH32 0xB48EDCA3BDC8658BB712B2FCEFF22DE028026D6F971F9BF32AAB68125FC49BC6 DUP3 TIMESTAMP PUSH1 0x40 MLOAD PUSH2 0x56D SWAP3 SWAP2 SWAP1 PUSH2 0xE2D JUMP JUMPDEST PUSH1 0x40 MLOAD DUP1 SWAP2 SUB SWAP1 LOG1 POP POP JUMP JUMPDEST PUSH1 0x0 PUSH1 0x40 MLOAD SWAP1 POP SWAP1 JUMP JUMPDEST PUSH1 0x0 DUP1 REVERT JUMPDEST PUSH1 0x0 DUP1 REVERT JUMPDEST PUSH1 0x0 DUP1 REVERT JUMPDEST PUSH1 0x0 DUP1 REVERT JUMPDEST PUSH1 0x0 PUSH1 0x1F NOT PUSH1 0x1F DUP4 ADD AND SWAP1 POP SWAP2 SWAP1 POP JUMP JUMPDEST PUSH32 0x4E487B7100000000000000000000000000000000000000000000000000000000 PUSH1 0x0 MSTORE PUSH1 0x41 PUSH1 0x4 MSTORE PUSH1 0x24 PUSH1 0x0 REVERT JUMPDEST PUSH2 0x5E0 DUP3 PUSH2 0x597 JUMP JUMPDEST DUP2 ADD DUP2 DUP2 LT PUSH8 0xFFFFFFFFFFFFFFFF DUP3 GT OR ISZERO PUSH2 0x5FF JUMPI PUSH2 0x5FE PUSH2 0x5A8 JUMP JUMPDEST JUMPDEST DUP1 PUSH1 0x40 MSTORE POP POP POP JUMP JUMPDEST PUSH1 0x0 PUSH2 0x612 PUSH2 0x579 JUMP JUMPDEST SWAP1 POP PUSH2 0x61E DUP3 DUP3 PUSH2 0x5D7 JUMP JUMPDEST SWAP2 SWAP1 POP JUMP JUMPDEST PUSH1 0x0 PUSH8 0xFFFFFFFFFFFFFFFF DUP3 GT ISZERO PUSH2 0x63E JUMPI PUSH2 0x63D PUSH2 0x5A8 JUMP JUMPDEST JUMPDEST PUSH2 0x647 DUP3 PUSH2 0x597 JUMP JUMPDEST SWAP1 POP PUSH1 0x20 DUP2 ADD SWAP1 POP SWAP2 SWAP1 POP JUMP JUMPDEST DUP3 DUP2 DUP4 CALLDATACOPY PUSH1 0x0 DUP4 DUP4 ADD MSTORE POP POP POP JUMP JUMPDEST PUSH1 0x0 PUSH2 0x676 PUSH2 0x671 DUP5 PUSH2 0x623 JUMP JUMPDEST PUSH2 0x608 JUMP JUMPDEST SWAP1 POP DUP3 DUP2 MSTORE PUSH1 0x20 DUP2 ADD DUP5 DUP5 DUP5 ADD GT ISZERO PUSH2 0x692 JUMPI PUSH2 0x691 PUSH2 0x592 JUMP JUMPDEST JUMPDEST PUSH2 0x69D DUP5 DUP3 DUP6 PUSH2 0x654 JUMP JUMPDEST POP SWAP4 SWAP3 POP POP POP JUMP JUMPDEST PUSH1 0x0 DUP3 PUSH1 0x1F DUP4 ADD SLT PUSH2 0x6BA JUMPI PUSH2 0x6B9 PUSH2 0x58D JUMP JUMPDEST JUMPDEST DUP2 CALLDATALOAD PUSH2 0x6CA DUP5 DUP3 PUSH1 0x20 DUP7 ADD PUSH2 0x663 JUMP JUMPDEST SWAP2 POP POP SWAP3 SWAP2 POP POP JUMP JUMPDEST PUSH1 0x0 DUP2 SWAP1 POP SWAP2 SWAP1 POP JUMP JUMPDEST PUSH2 0x6E6 DUP2 PUSH2 0x6D3 JUMP JUMPDEST DUP2 EQ PUSH2 0x6F1 JUMPI PUSH1 0x0 DUP1 REVERT JUMPDEST POP JUMP JUMPDEST PUSH1 0x0 DUP2 CALLDATALOAD SWAP1 POP PUSH2 0x703 DUP2 PUSH2 0x6DD JUMP JUMPDEST SWAP3 SWAP2 POP POP JUMP JUMPDEST PUSH1 0x0 DUP1 PUSH1 0x0 PUSH1 0x60 DUP5 DUP7 SUB SLT ISZERO PUSH2 0x722 JUMPI PUSH2 0x721 PUSH2 0x583 JUMP JUMPDEST JUMPDEST PUSH1 0x0 DUP5 ADD CALLDATALOAD PUSH8 0xFFFFFFFFFFFFFFFF DUP2 GT ISZERO PUSH2 0x740 JUMPI PUSH2 0x73F PUSH2 0x588 JUMP JUMPDEST JUMPDEST PUSH2 0x74C DUP7 DUP3 DUP8 ADD PUSH2 0x6A5 JUMP JUMPDEST SWAP4 POP POP PUSH1 0x20 DUP5 ADD CALLDATALOAD PUSH8 0xFFFFFFFFFFFFFFFF DUP2 GT ISZERO PUSH2 0x76D JUMPI PUSH2 0x76C PUSH2 0x588 JUMP JUMPDEST JUMPDEST PUSH2 0x779 DUP7 DUP3 DUP8 ADD PUSH2 0x6A5 JUMP JUMPDEST SWAP3 POP POP PUSH1 0x40 PUSH2 0x78A DUP7 DUP3 DUP8 ADD PUSH2 0x6F4 JUMP JUMPDEST SWAP2 POP POP SWAP3 POP SWAP3 POP SWAP3 JUMP JUMPDEST PUSH1 0x0 DUP1 PUSH1 0x40 DUP4 DUP6 SUB SLT ISZERO PUSH2 0x7AB JUMPI PUSH2 0x7AA PUSH2 0x583 JUMP JUMPDEST JUMPDEST PUSH1 0x0 DUP4 ADD CALLDATALOAD PUSH8 0xFFFFFFFFFFFFFFFF DUP2 GT ISZERO PUSH2 0x7C9 JUMPI PUSH2 0x7C8 PUSH2 0x588 JUMP JUMPDEST JUMPDEST PUSH2 0x7D5 DUP6 DUP3 DUP7 ADD PUSH2 0x6A5 JUMP JUMPDEST SWAP3 POP POP PUSH1 0x20 PUSH2 0x7E6 DUP6 DUP3 DUP7 ADD PUSH2 0x6F4 JUMP JUMPDEST SWAP2 POP POP SWAP3 POP SWAP3 SWAP1 POP JUMP JUMPDEST PUSH1 0x0 DUP2 ISZERO ISZERO SWAP1 POP SWAP2 SWAP1 POP JUMP JUMPDEST PUSH2 0x805 DUP2 PUSH2 0x7F0 JUMP JUMPDEST DUP3 MSTORE POP POP JUMP JUMPDEST PUSH1 0x0 PUSH1 0x20 DUP3 ADD SWAP1 POP PUSH2 0x820 PUSH1 0x0 DUP4 ADD DUP5 PUSH2 0x7FC JUMP JUMPDEST SWAP3 SWAP2 POP POP JUMP JUMPDEST PUSH1 0x0 PUSH1 0x20 DUP3 DUP5 SUB SLT ISZERO PUSH2 0x83C JUMPI PUSH2 0x83B PUSH2 0x583 JUMP JUMPDEST JUMPDEST PUSH1 0x0 DUP3 ADD CALLDATALOAD PUSH8 0xFFFFFFFFFFFFFFFF DUP2 GT ISZERO PUSH2 0x85A JUMPI PUSH2 0x859 PUSH2 0x588 JUMP JUMPDEST JUMPDEST PUSH2 0x866 DUP5 DUP3 DUP6 ADD PUSH2 0x6A5 JUMP JUMPDEST SWAP2 POP POP SWAP3 SWAP2 POP POP JUMP JUMPDEST PUSH1 0x0 DUP2 MLOAD SWAP1 POP SWAP2 SWAP1 POP JUMP JUMPDEST PUSH1 0x0 DUP2 SWAP1 POP SWAP3 SWAP2 POP POP JUMP JUMPDEST PUSH1 0x0 JUMPDEST DUP4 DUP2 LT ISZERO PUSH2 0x8A3 JUMPI DUP1 DUP3 ADD MLOAD DUP2 DUP5 ADD MSTORE PUSH1 0x20 DUP2 ADD SWAP1 POP PUSH2 0x888 JUMP JUMPDEST PUSH1 0x0 DUP5 DUP5 ADD MSTORE POP POP POP POP JUMP JUMPDEST PUSH1 0x0 PUSH2 0x8BA DUP3 PUSH2 0x86F JUMP JUMPDEST PUSH2 0x8C4 DUP2 DUP6 PUSH2 0x87A JUMP JUMPDEST SWAP4 POP PUSH2 0x8D4 DUP2 DUP6 PUSH1 0x20 DUP7 ADD PUSH2 0x885 JUMP JUMPDEST DUP1 DUP5 ADD SWAP2 POP POP SWAP3 SWAP2 POP POP JUMP JUMPDEST PUSH1 0x0 PUSH2 0x8EC DUP3 DUP5 PUSH2 0x8AF JUMP JUMPDEST SWAP2 POP DUP2 SWAP1 POP SWAP3 SWAP2 POP POP JUMP JUMPDEST PUSH1 0x0 DUP3 DUP3 MSTORE PUSH1 0x20 DUP3 ADD SWAP1 POP SWAP3 SWAP2 POP POP JUMP JUMPDEST PUSH32 0x5265636F726420616C7265616479206578697374730000000000000000000000 PUSH1 0x0 DUP3 ADD MSTORE POP JUMP JUMPDEST PUSH1 0x0 PUSH2 0x93E PUSH1 0x15 DUP4 PUSH2 0x8F7 JUMP JUMPDEST SWAP2 POP PUSH2 0x949 DUP3 PUSH2 0x908 JUMP JUMPDEST PUSH1 0x20 DUP3 ADD SWAP1 POP SWAP2 SWAP1 POP JUMP JUMPDEST PUSH1 0x0 PUSH1 0x20 DUP3 ADD SWAP1 POP DUP2 DUP2 SUB PUSH1 0x0 DUP4 ADD MSTORE PUSH2 0x96D DUP2 PUSH2 0x931 JUMP JUMPDEST SWAP1 POP SWAP2 SWAP1 POP JUMP JUMPDEST PUSH32 0x55736572206E6F74207265676973746572656400000000000000000000000000 PUSH1 0x0 DUP3 ADD MSTORE POP JUMP JUMPDEST PUSH1 0x0 PUSH2 0x9AA PUSH1 0x13 DUP4 PUSH2 0x8F7 JUMP JUMPDEST SWAP2 POP PUSH2 0x9B5 DUP3 PUSH2 0x974 JUMP JUMPDEST PUSH1 0x20 DUP3 ADD SWAP1 POP SWAP2 SWAP1 POP JUMP JUMPDEST PUSH1 0x0 PUSH1 0x20 DUP3 ADD SWAP1 POP DUP2 DUP2 SUB PUSH1 0x0 DUP4 ADD MSTORE PUSH2 0x9D9 DUP2 PUSH2 0x99D JUMP JUMPDEST SWAP1 POP SWAP2 SWAP1 POP JUMP JUMPDEST PUSH32 0x4E487B7100000000000000000000000000000000000000000000000000000000 PUSH1 0x0 MSTORE PUSH1 0x22 PUSH1 0x4 MSTORE PUSH1 0x24 PUSH1 0x0 REVERT JUMPDEST PUSH1 0x0 PUSH1 0x2 DUP3 DIV SWAP1 POP PUSH1 0x1 DUP3 AND DUP1 PUSH2 0xA27 JUMPI PUSH1 0x7F DUP3 AND SWAP2 POP JUMPDEST PUSH1 0x20 DUP3 LT DUP2 SUB PUSH2 0xA3A JUMPI PUSH2 0xA39 PUSH2 0x9E0 JUMP JUMPDEST JUMPDEST POP SWAP2 SWAP1 POP JUMP JUMPDEST PUSH1 0x0 DUP2 SWAP1 POP DUP2 PUSH1 0x0 MSTORE PUSH1 0x20 PUSH1 0x0 KECCAK256 SWAP1 POP SWAP2 SWAP1 POP JUMP JUMPDEST PUSH1 0x0 PUSH1 0x20 PUSH1 0x1F DUP4 ADD DIV SWAP1 POP SWAP2 SWAP1 POP JUMP JUMPDEST PUSH1 0x0 DUP3 DUP3 SHL SWAP1 POP SWAP3 SWAP2 POP POP JUMP JUMPDEST PUSH1 0x0 PUSH1 0x8 DUP4 MUL PUSH2 0xAA2 PUSH32 0xFFFFFFFFFFFFFFFFFFFFFFFFFFFFFFFFFFFFFFFFFFFFFFFFFFFFFFFFFFFFFFFF DUP3 PUSH2 0xA65 JUMP JUMPDEST PUSH2 0xAAC DUP7 DUP4 PUSH2 0xA65 JUMP JUMPDEST SWAP6 POP DUP1 NOT DUP5 AND SWAP4 POP DUP1 DUP7 AND DUP5 OR SWAP3 POP POP POP SWAP4 SWAP3 POP POP POP JUMP JUMPDEST PUSH1 0x0 DUP2 SWAP1 POP SWAP2 SWAP1 POP JUMP JUMPDEST PUSH1 0x0 DUP2 SWAP1 POP SWAP2 SWAP1 POP JUMP JUMPDEST PUSH1 0x0 PUSH2 0xAF3 PUSH2 0xAEE PUSH2 0xAE9 DUP5 PUSH2 0xAC4 JUMP JUMPDEST PUSH2 0xACE JUMP JUMPDEST PUSH2 0xAC4 JUMP JUMPDEST SWAP1 POP SWAP2 SWAP1 POP JUMP JUMPDEST PUSH1 0x0 DUP2 SWAP1 POP SWAP2 SWAP1 POP JUMP JUMPDEST PUSH2 0xB0D DUP4 PUSH2 0xAD8 JUMP JUMPDEST PUSH2 0xB21 PUSH2 0xB19 DUP3 PUSH2 0xAFA JUMP JUMPDEST DUP5 DUP5 SLOAD PUSH2 0xA72 JUMP JUMPDEST DUP3 SSTORE POP POP POP POP JUMP JUMPDEST PUSH1 0x0 SWAP1 JUMP JUMPDEST PUSH2 0xB36 PUSH2 0xB29 JUMP JUMPDEST PUSH2 0xB41 DUP2 DUP5 DUP5 PUSH2 0xB04 JUMP JUMPDEST POP POP POP JUMP JUMPDEST JUMPDEST DUP2 DUP2 LT ISZERO PUSH2 0xB65 JUMPI PUSH2 0xB5A PUSH1 0x0 DUP3 PUSH2 0xB2E JUMP JUMPDEST PUSH1 0x1 DUP2 ADD SWAP1 POP PUSH2 0xB47 JUMP JUMPDEST POP POP JUMP JUMPDEST PUSH1 0x1F DUP3 GT ISZERO PUSH2 0xBAA JUMPI PUSH2 0xB7B DUP2 PUSH2 0xA40 JUMP JUMPDEST PUSH2 0xB84 DUP5 PUSH2 0xA55 JUMP JUMPDEST DUP2 ADD PUSH1 0x20 DUP6 LT ISZERO PUSH2 0xB93 JUMPI DUP2 SWAP1 POP JUMPDEST PUSH2 0xBA7 PUSH2 0xB9F DUP6 PUSH2 0xA55 JUMP JUMPDEST DUP4 ADD DUP3 PUSH2 0xB46 JUMP JUMPDEST POP POP JUMPDEST POP POP POP JUMP JUMPDEST PUSH1 0x0 DUP3 DUP3 SHR SWAP1 POP SWAP3 SWAP2 POP POP JUMP JUMPDEST PUSH1 0x0 PUSH2 0xBCD PUSH1 0x0 NOT DUP5 PUSH1 0x8 MUL PUSH2 0xBAF JUMP JUMPDEST NOT DUP1 DUP4 AND SWAP2 POP POP SWAP3 SWAP2 POP POP JUMP JUMPDEST PUSH1 0x0 PUSH2 0xBE6 DUP4 DUP4 PUSH2 0xBBC JUMP JUMPDEST SWAP2 POP DUP3 PUSH1 0x2 MUL DUP3 OR SWAP1 POP SWAP3 SWAP2 POP POP JUMP JUMPDEST PUSH2 0xBFF DUP3 PUSH2 0x86F JUMP JUMPDEST PUSH8 0xFFFFFFFFFFFFFFFF DUP2 GT ISZERO PUSH2 0xC18 JUMPI PUSH2 0xC17 PUSH2 0x5A8 JUMP JUMPDEST JUMPDEST PUSH2 0xC22 DUP3 SLOAD PUSH2 0xA0F JUMP JUMPDEST PUSH2 0xC2D DUP3 DUP3 DUP6 PUSH2 0xB69 JUMP JUMPDEST PUSH1 0x0 PUSH1 0x20 SWAP1 POP PUSH1 0x1F DUP4 GT PUSH1 0x1 DUP2 EQ PUSH2 0xC60 JUMPI PUSH1 0x0 DUP5 ISZERO PUSH2 0xC4E JUMPI DUP3 DUP8 ADD MLOAD SWAP1 POP JUMPDEST PUSH2 0xC58 DUP6 DUP3 PUSH2 0xBDA JUMP JUMPDEST DUP7 SSTORE POP PUSH2 0xCC0 JUMP JUMPDEST PUSH1 0x1F NOT DUP5 AND PUSH2 0xC6E DUP7 PUSH2 0xA40 JUMP JUMPDEST PUSH1 0x0 JUMPDEST DUP3 DUP2 LT ISZERO PUSH2 0xC96 JUMPI DUP5 DUP10 ADD MLOAD DUP3 SSTORE PUSH1 0x1 DUP3 ADD SWAP2 POP PUSH1 0x20 DUP6 ADD SWAP5 POP PUSH1 0x20 DUP2 ADD SWAP1 POP PUSH2 0xC71 JUMP JUMPDEST DUP7 DUP4 LT ISZERO PUSH2 0xCB3 JUMPI DUP5 DUP10 ADD MLOAD PUSH2 0xCAF PUSH1 0x1F DUP10 AND DUP3 PUSH2 0xBBC JUMP JUMPDEST DUP4 SSTORE POP JUMPDEST PUSH1 0x1 PUSH1 0x2 DUP9 MUL ADD DUP9 SSTORE POP POP POP JUMPDEST POP POP POP POP POP POP JUMP JUMPDEST PUSH1 0x0 PUSH2 0xCD3 DUP3 PUSH2 0x86F JUMP JUMPDEST PUSH2 0xCDD DUP2 DUP6 PUSH2 0x8F7 JUMP JUMPDEST SWAP4 POP PUSH2 0xCED DUP2 DUP6 PUSH1 0x20 DUP7 ADD PUSH2 0x885 JUMP JUMPDEST PUSH2 0xCF6 DUP2 PUSH2 0x597 JUMP JUMPDEST DUP5 ADD SWAP2 POP POP SWAP3 SWAP2 POP POP JUMP JUMPDEST PUSH2 0xD0A DUP2 PUSH2 0xAC4 JUMP JUMPDEST DUP3 MSTORE POP POP JUMP JUMPDEST PUSH1 0x0 PUSH1 0x60 DUP3 ADD SWAP1 POP DUP2 DUP2 SUB PUSH1 0x0 DUP4 ADD MSTORE PUSH2 0xD2A DUP2 DUP7 PUSH2 0xCC8 JUMP JUMPDEST SWAP1 POP DUP2 DUP2 SUB PUSH1 0x20 DUP4 ADD MSTORE PUSH2 0xD3E DUP2 DUP6 PUSH2 0xCC8 JUMP JUMPDEST SWAP1 POP PUSH2 0xD4D PUSH1 0x40 DUP4 ADD DUP5 PUSH2 0xD01 JUMP JUMPDEST SWAP5 SWAP4 POP POP POP POP JUMP JUMPDEST PUSH32 0x5265636F726420646F6573206E6F742065786973740000000000000000000000 PUSH1 0x0 DUP3 ADD MSTORE POP JUMP JUMPDEST PUSH1 0x0 PUSH2 0xD8B PUSH1 0x15 DUP4 PUSH2 0x8F7 JUMP JUMPDEST SWAP2 POP PUSH2 0xD96 DUP3 PUSH2 0xD55 JUMP JUMPDEST PUSH1 0x20 DUP3 ADD SWAP1 POP SWAP2 SWAP1 POP JUMP JUMPDEST PUSH1 0x0 PUSH1 0x20 DUP3 ADD SWAP1 POP DUP2 DUP2 SUB PUSH1 0x0 DUP4 ADD MSTORE PUSH2 0xDBA DUP2 PUSH2 0xD7E JUMP JUMPDEST SWAP1 POP SWAP2 SWAP1 POP JUMP JUMPDEST PUSH32 0x5573657220616C72656164792072656769737465726564000000000000000000 PUSH1 0x0 DUP3 ADD MSTORE POP JUMP JUMPDEST PUSH1 0x0 PUSH2 0xDF7 PUSH1 0x17 DUP4 PUSH2 0x8F7 JUMP JUMPDEST SWAP2 POP PUSH2 0xE02 DUP3 PUSH2 0xDC1 JUMP JUMPDEST PUSH1 0x20 DUP3 ADD SWAP1 POP SWAP2 SWAP1 POP JUMP JUMPDEST PUSH1 0x0 PUSH1 0x20 DUP3 ADD SWAP1 POP DUP2 DUP2 SUB PUSH1 0x0 DUP4 ADD MSTORE PUSH2 0xE26 DUP2 PUSH2 0xDEA JUMP JUMPDEST SWAP1 POP SWAP2 SWAP1 POP JUMP JUMPDEST PUSH1 0x0 PUSH1 0x40 DUP3 ADD SWAP1 POP DUP2 DUP2 SUB PUSH1 0x0 DUP4 ADD MSTORE PUSH2 0xE47 DUP2 DUP6 PUSH2 0xCC8 JUMP JUMPDEST SWAP1 POP PUSH2 0xE56 PUSH1 0x20 DUP4 ADD DUP5 PUSH2 0xD01 JUMP JUMPDEST SWAP4 SWAP3 POP POP POP JUMP INVALID LOG2 PUSH5 0x6970667358 0x22 SLT KECCAK256 0xEC SWAP15 BALANCE 0x5F 0x4F CREATE2 CODESIZE PUSH17 0x32B58CFFCA1AE84AE630A779D4412252D LOG2 DUP16 CALLER SIGNEXTEND SDIV GAS 0x27 PUSH5 0x736F6C6343 STOP ADDMOD SGT STOP CALLER "},"methodIdentifiers":{"addRecord(string,string,bytes32)":"026d4e5c","addUser(string,bytes32)":"b2004ace","isUserRegistered(string)":"a8cc7784","verifyRecord(string,bytes32)":"122a183a","verifyUser(string,bytes32)":"53d0e5bc"}}}}}